{"abi":[{"type":"constructor","inputs":[],"stateMutability":"nonpayable"},{"type":"function","name":"allowance","inputs":[{"name":"owner","type":"address","internalType":"address"},{"name":"spender","type":"address","internalType":"address"}],"outputs":[{"name":"","type":"uint256","internalType":"uint256"}],"stateMutability":"view"},{"type":"function","name":"approve","inputs":[{"name":"spender","type":"address","internalType":"address"},{"name":"value","type":"uint256","internalType":"uint256"}],"outputs":[{"name":"","type":"bool","internalType":"bool"}],"stateMutability":"nonpayable"},{"type":"function","name":"balanceOf","inputs":[{"name":"account","type":"address","internalType":"address"}],"outputs":[{"name":"","type":"uint256","internalType":"uint256"}],"stateMutability":"view"},{"type":"function","name":"decimals","inputs":[],"outputs":[{"name":"","type":"uint8","internalType":"uint8"}],"stateMutability":"view"},{"type":"function","name":"faucet","inputs":[],"outputs":[],"stateMutability":"nonpayable"},{"type":"function","name":"mint","inputs":[{"name":"to","type":"address","internalType":"address"},{"name":"amount","type":"uint256","internalType":"uint256"}],"outputs":[],"stateMutability":"nonpayable"},{"type":"function","name":"name","inputs":[],"outputs":[{"name":"","type":"string","internalType":"string"}],"stateMutability":"view"},{"type":"function","name":"owner","inputs":[],"outputs":[{"name":"","type":"address","internalType":"address"}],"stateMutability":"view"},{"type":"function","name":"renounceOwnership","inputs":[],"outputs":[],"stateMutability":"nonpayable"},{"type":"function","name":"symbol","inputs":[],"outputs":[{"name":"","type":"string","internalType":"string"}],"stateMutability":"view"},{"type":"function","name":"totalSupply","inputs":[],"outputs":[{"name":"","type":"uint256","internalType":"uint256"}],"stateMutability":"view"},{"type":"function","name":"transfer","inputs":[{"name":"to","type":"address","internalType":"address"},{"name":"value","type":"uint256","internalType":"uint256"}],"outputs":[{"name":"","type":"bool","internalType":"bool"}],"stateMutability":"nonpayable"},{"type":"function","name":"transferFrom","inputs":[{"name":"from","type":"address","internalType":"address"},{"name":"to","type":"address","internalType":"address"},{"name":"value","type":"uint256","internalType":"uint256"}],"outputs":[{"name":"","type":"bool","internalType":"bool"}],"stateMutability":"nonpayable"},{"type":"function","name":"transferOwnership","inputs":[{"name":"newOwner","type":"address","internalType":"address"}],"outputs":[],"stateMutability":"nonpayable"},{"type":"event","name":"Approval","inputs":[{"name":"owner","type":"address","indexed":true,"internalType":"address"},{"name":"spender","type":"address","indexed":true,"internalType":"address"},{"name":"value","type":"uint256","indexed":false,"internalType":"uint256"}],"anonymous":false},{"type":"event","name":"OwnershipTransferred","inputs":[{"name":"previousOwner","type":"address","indexed":true,"internalType":"address"},{"name":"newOwner","type":"address","indexed":true,"internalType":"address"}],"anonymous":false},{"type":"event","name":"Transfer","inputs":[{"name":"from","type":"address","indexed":true,"internalType":"address"},{"name":"to","type":"address","indexed":true,"internalType":"address"},{"name":"value","type":"uint256","indexed":false,"internalType":"uint256"}],"anonymous":false},{"type":"error","name":"ERC20InsufficientAllowance","inputs":[{"name":"spender","type":"address","internalType":"address"},{"name":"allowance","type":"uint256","internalType":"uint256"},{"name":"needed","type":"uint256","internalType":"uint256"}]},{"type":"error","name":"ERC20InsufficientBalance","inputs":[{"name":"sender","type":"address","internalType":"address"},{"name":"balance","type":"uint256","internalType":"uint256"},{"name":"needed","type":"uint256","internalType":"uint256"}]},{"type":"error","name":"ERC20InvalidApprover","inputs":[{"name":"approver","type":"address","internalType":"address"}]},{"type":"error","name":"ERC20InvalidReceiver","inputs":[{"name":"receiver","type":"address","internalType":"address"}]},{"type":"error","name":"ERC20InvalidSender","inputs":[{"name":"sender","type":"address","internalType":"address"}]},{"type":"error","name":"ERC20InvalidSpender","inputs":[{"name":"spender","type":"address","internalType":"address"}]},{"type":"error","name":"OwnableInvalidOwner","inputs":[{"name":"owner","type":"address","internalType":"address"}]},{"type":"error","name":"OwnableUnauthorizedAccount","inputs":[{"name":"account","type":"address","internalType":"address"}]}],"bytecode":{"object":"0x608034620003c2576040906001600160401b0381830181811183821017620002cf57835260098252602090684d6f636b205553444360b81b8284015283519284840184811083821117620002cf578552600591828552646d5553444360d81b848601528151818111620002cf576003908154906001948583811c93168015620003b7575b88841014620003a3578190601f9384811162000352575b508890848311600114620002ef575f92620002e3575b50505f1982851b1c191690851b1782555b8651928311620002cf5760049687548581811c91168015620002c4575b88821014620002b1578281116200026b575b508691841160011462000204579383949184925f95620001f8575b50501b925f19911b1c19161783555b3315620001e2578054336001600160a01b0382167f8be0079c531659141344cd1fd0a4f28419497f9722a3daafe3b4186f6b6457e05f80a36001600160a81b0319163360ff60a01b191617600360a11b17905560025464e8d4a5100092838201918210620001cf57505f917fddf252ad1be2c89b69c2b068fc378daa952ba7f163c4a11628f55a4df523b3ef9160025533835282815284832084815401905584519384523393a3516109769081620003c78239f35b601190634e487b7160e01b5f525260245ffd5b8351631e4fbdf760e01b81525f81850152602490fd5b015193505f806200010b565b9190601f19841692885f5284885f20945f5b8a8983831062000253575050501062000239575b50505050811b0183556200011a565b01519060f8845f19921b161c191690555f8080806200022a565b86860151895590970196948501948893500162000216565b885f52875f2083808701891c8201928a8810620002a7575b01881c019086905b8281106200029b575050620000f0565b5f81550186906200028b565b9250819262000283565b602289634e487b7160e01b5f525260245ffd5b90607f1690620000de565b634e487b7160e01b5f52604160045260245ffd5b015190505f80620000b0565b90879350601f19831691865f528a5f20925f5b8c8282106200033b575050841162000323575b505050811b018255620000c1565b01515f1983871b60f8161c191690555f808062000315565b8385015186558b9790950194938401930162000302565b909150845f52885f20848085018a1c8201928b861062000399575b91899186959493018b1c01915b8281106200038a5750506200009a565b5f81558594508991016200037a565b925081926200036d565b634e487b7160e01b5f52602260045260245ffd5b92607f169262000083565b5f80fdfe60806040818152600480361015610014575f80fd5b5f92833560e01c90816306fdde03146106cd57508063095ea7b31461062457806318160ddd1461060557806323b872dd14610513578063313ce567146104ee57806340c10f191461043f57806370a0823114610408578063715018a6146103a85780638da5cb5b1461037f57806395d89b411461025f578063a9059cbb1461022e578063dd62ed3e146101e1578063de5f72fd1461014c5763f2fde38b146100ba575f80fd5b34610148576020366003190112610148576100d3610809565b906100dc610839565b6001600160a01b03918216928315610132575050600554826bffffffffffffffffffffffff60a01b821617600555167f8be0079c531659141344cd1fd0a4f28419497f9722a3daafe3b4186f6b6457e08380a380f35b51631e4fbdf760e01b8152908101849052602490fd5b8280fd5b50903461014857826003193601126101485733156101cc57600254633b9aca00928382018092116101b957506002553383528260205280832082815401905551908152817fddf252ad1be2c89b69c2b068fc378daa952ba7f163c4a11628f55a4df523b3ef60203393a380f35b634e487b7160e01b855260119052602484fd5b91602492519163ec442f0560e01b8352820152fd5b50503461022a578060031936011261022a57806020926101ff610809565b610207610823565b6001600160a01b0391821683526001865283832091168252845220549051908152f35b5080fd5b50503461022a578060031936011261022a5760209061025861024e610809565b6024359033610865565b5160018152f35b5091903461022a578160031936011261022a57805190828454600181811c90808316928315610375575b60209384841081146103625783885290811561034657506001146102f1575b505050829003601f01601f191682019267ffffffffffffffff8411838510176102de57508291826102da9252826107c2565b0390f35b634e487b7160e01b815260418552602490fd5b8787529192508591837f8a35acfbc15ff81a39ae7d344fd709f28e8600b4aa8c65c6b64bfe7fe36bd19b5b83851061033257505050508301015f80806102a8565b80548886018301529301928490820161031c565b60ff1916878501525050151560051b84010190505f80806102a8565b634e487b7160e01b895260228a52602489fd5b91607f1691610289565b50503461022a578160031936011261022a5760055490516001600160a01b039091168152602090f35b83346104055780600319360112610405576103c1610839565b600580546001600160a01b0319811690915581906001600160a01b03167f8be0079c531659141344cd1fd0a4f28419497f9722a3daafe3b4186f6b6457e08280a380f35b80fd5b50503461022a57602036600319011261022a5760209181906001600160a01b03610430610809565b16815280845220549051908152f35b509034610148578060031936011261014857610459610809565b9060243591610466610839565b6001600160a01b03169283156104d957600254908382018092116104c6575084927fddf252ad1be2c89b69c2b068fc378daa952ba7f163c4a11628f55a4df523b3ef9260209260025585855284835280852082815401905551908152a380f35b634e487b7160e01b865260119052602485fd5b84602492519163ec442f0560e01b8352820152fd5b50503461022a578160031936011261022a5760209060ff60055460a01c169051908152f35b5082346104055760603660031901126104055761052e610809565b610536610823565b916044359360018060a01b038316808352600160205286832033845260205286832054915f198310610571575b602088610258898989610865565b8683106105d95781156105c25733156105ab5750825260016020908152868320338452815291869020908590039055829061025887610563565b8751634a1406b160e11b8152908101849052602490fd5b875163e602df0560e01b8152908101849052602490fd5b8751637dc7a0d960e11b8152339181019182526020820193909352604081018790528291506060010390fd5b50503461022a578160031936011261022a576020906002549051908152f35b503461014857816003193601126101485761063d610809565b6024359033156106b6576001600160a01b031691821561069f57508083602095338152600187528181208582528752205582519081527f8c5be1e5ebec7d5bd14f71427d1e84f3dd0314c0f7b2291e5b200ac8c7c3b925843392a35160018152f35b8351634a1406b160e11b8152908101859052602490fd5b835163e602df0560e01b8152808401869052602490fd5b849150833461014857826003193601126101485782600354600181811c908083169283156107b8575b60209384841081146103625783885290811561079c575060011461074657505050829003601f01601f191682019267ffffffffffffffff8411838510176102de57508291826102da9252826107c2565b600387529192508591837fc2575a0e9e593c00f959f8c92f12db2869c3395a3b0502d05e2516446f71f85b5b83851061078857505050508301018580806102a8565b805488860183015293019284908201610772565b60ff1916878501525050151560051b84010190508580806102a8565b91607f16916106f6565b602080825282518183018190529093925f5b8281106107f557505060409293505f838284010152601f8019910116010190565b8181018601518482016040015285016107d4565b600435906001600160a01b038216820361081f57565b5f80fd5b602435906001600160a01b038216820361081f57565b6005546001600160a01b0316330361084d57565b60405163118cdaa760e01b8152336004820152602490fd5b916001600160a01b038084169283156109285716928315610910575f90838252816020526040822054908382106108de575091604082827fddf252ad1be2c89b69c2b068fc378daa952ba7f163c4a11628f55a4df523b3ef958760209652828652038282205586815220818154019055604051908152a3565b60405163391434e360e21b81526001600160a01b03919091166004820152602481019190915260448101839052606490fd5b60405163ec442f0560e01b81525f6004820152602490fd5b604051634b637e8f60e11b81525f6004820152602490fdfea2646970667358221220401515276ab20ebd312ed8f0fca9d63723a1d53b8d3b57fd575b1a821899bcbe64736f6c63430008140033","linkReferences":{}},"methodIdentifiers":{"allowance(address,address)":"dd62ed3e","approve(address,uint256)":"095ea7b3","balanceOf(address)":"70a08231","decimals()":"313ce567","faucet()":"de5f72fd","mint(address,uint256)":"40c10f19","name()":"06fdde03","owner()":"8da5cb5b","renounceOwnership()":"715018a6","symbol()":"95d89b41","totalSupply()":"18160ddd","transfer(address,uint256)":"a9059cbb","transferFrom(address,address,uint256)":"23b872dd","transferOwnership(address)":"f2fde38b"},"id":33}