{
  "abi": [
    {
      "type": "constructor",
      "inputs": [
        {
          "name": "_usdcToken",
          "type": "address",
          "internalType": "address"
        },
        {
          "name": "_swarmToken",
          "type": "address",
          "internalType": "address"
        }
      ],
      "stateMutability": "nonpayable"
    },
    {
      "type": "function",
      "name": "BASELINE_SWM_PER_USDC",
      "inputs": [],
      "outputs": [
        {
          "name": "",
          "type": "uint256",
          "internalType": "uint256"
        }
      ],
      "stateMutability": "view"
    },
    {
      "type": "function",
      "name": "BONUS_SWM_PER_USDC",
      "inputs": [],
      "outputs": [
        {
          "name": "",
          "type": "uint256",
          "internalType": "uint256"
        }
      ],
      "stateMutability": "view"
    },
    {
      "type": "function",
      "name": "TREASURY_FEE_BPS",
      "inputs": [],
      "outputs": [
        {
          "name": "",
          "type": "uint256",
          "internalType": "uint256"
        }
      ],
      "stateMutability": "view"
    },
    {
      "type": "function",
      "name": "claimReward",
      "inputs": [
        {
          "name": "_pollId",
          "type": "uint256",
          "internalType": "uint256"
        }
      ],
      "outputs": [],
      "stateMutability": "nonpayable"
    },
    {
      "type": "function",
      "name": "createPoll",
      "inputs": [
        {
          "name": "_question",
          "type": "string",
          "internalType": "string"
        },
        {
          "name": "_options",
          "type": "string[]",
          "internalType": "string[]"
        },
        {
          "name": "_duration",
          "type": "uint256",
          "internalType": "uint256"
        }
      ],
      "outputs": [],
      "stateMutability": "nonpayable"
    },
    {
      "type": "function",
      "name": "declareWinner",
      "inputs": [
        {
          "name": "_pollId",
          "type": "uint256",
          "internalType": "uint256"
        },
        {
          "name": "_winningOptionId",
          "type": "uint256",
          "internalType": "uint256"
        }
      ],
      "outputs": [],
      "stateMutability": "nonpayable"
    },
    {
      "type": "function",
      "name": "getOptionCount",
      "inputs": [
        {
          "name": "_pollId",
          "type": "uint256",
          "internalType": "uint256"
        }
      ],
      "outputs": [
        {
          "name": "",
          "type": "uint256",
          "internalType": "uint256"
        }
      ],
      "stateMutability": "view"
    },
    {
      "type": "function",
      "name": "getOptionStake",
      "inputs": [
        {
          "name": "_pollId",
          "type": "uint256",
          "internalType": "uint256"
        },
        {
          "name": "_optionId",
          "type": "uint256",
          "internalType": "uint256"
        }
      ],
      "outputs": [
        {
          "name": "",
          "type": "uint256",
          "internalType": "uint256"
        }
      ],
      "stateMutability": "view"
    },
    {
      "type": "function",
      "name": "getPoll",
      "inputs": [
        {
          "name": "_pollId",
          "type": "uint256",
          "internalType": "uint256"
        }
      ],
      "outputs": [
        {
          "name": "question",
          "type": "string",
          "internalType": "string"
        },
        {
          "name": "options",
          "type": "string[]",
          "internalType": "string[]"
        },
        {
          "name": "endTime",
          "type": "uint256",
          "internalType": "uint256"
        },
        {
          "name": "active",
          "type": "bool",
          "internalType": "bool"
        },
        {
          "name": "totalStaked",
          "type": "uint256",
          "internalType": "uint256"
        },
        {
          "name": "winnerDeclared",
          "type": "bool",
          "internalType": "bool"
        },
        {
          "name": "winningOptionId",
          "type": "uint256",
          "internalType": "uint256"
        }
      ],
      "stateMutability": "view"
    },
    {
      "type": "function",
      "name": "getPollCount",
      "inputs": [],
      "outputs": [
        {
          "name": "",
          "type": "uint256",
          "internalType": "uint256"
        }
      ],
      "stateMutability": "view"
    },
    {
      "type": "function",
      "name": "getUserStake",
      "inputs": [
        {
          "name": "_pollId",
          "type": "uint256",
          "internalType": "uint256"
        },
        {
          "name": "_user",
          "type": "address",
          "internalType": "address"
        },
        {
          "name": "_optionId",
          "type": "uint256",
          "internalType": "uint256"
        }
      ],
      "outputs": [
        {
          "name": "",
          "type": "uint256",
          "internalType": "uint256"
        }
      ],
      "stateMutability": "view"
    },
    {
      "type": "function",
      "name": "hasUserClaimed",
      "inputs": [
        {
          "name": "_pollId",
          "type": "uint256",
          "internalType": "uint256"
        },
        {
          "name": "_user",
          "type": "address",
          "internalType": "address"
        }
      ],
      "outputs": [
        {
          "name": "",
          "type": "bool",
          "internalType": "bool"
        }
      ],
      "stateMutability": "view"
    },
    {
      "type": "function",
      "name": "hasUserEntered",
      "inputs": [
        {
          "name": "_pollId",
          "type": "uint256",
          "internalType": "uint256"
        },
        {
          "name": "_user",
          "type": "address",
          "internalType": "address"
        }
      ],
      "outputs": [
        {
          "name": "",
          "type": "bool",
          "internalType": "bool"
        }
      ],
      "stateMutability": "view"
    },
    {
      "type": "function",
      "name": "lastMintTimestamp",
      "inputs": [],
      "outputs": [
        {
          "name": "",
          "type": "uint256",
          "internalType": "uint256"
        }
      ],
      "stateMutability": "view"
    },
    {
      "type": "function",
      "name": "mintSwmFromFees",
      "inputs": [
        {
          "name": "to",
          "type": "address",
          "internalType": "address"
        }
      ],
      "outputs": [],
      "stateMutability": "nonpayable"
    },
    {
      "type": "function",
      "name": "owner",
      "inputs": [],
      "outputs": [
        {
          "name": "",
          "type": "address",
          "internalType": "address"
        }
      ],
      "stateMutability": "view"
    },
    {
      "type": "function",
      "name": "pollCount",
      "inputs": [],
      "outputs": [
        {
          "name": "",
          "type": "uint256",
          "internalType": "uint256"
        }
      ],
      "stateMutability": "view"
    },
    {
      "type": "function",
      "name": "renounceOwnership",
      "inputs": [],
      "outputs": [],
      "stateMutability": "nonpayable"
    },
    {
      "type": "function",
      "name": "stake",
      "inputs": [
        {
          "name": "_pollId",
          "type": "uint256",
          "internalType": "uint256"
        },
        {
          "name": "_optionId",
          "type": "uint256",
          "internalType": "uint256"
        },
        {
          "name": "_amount",
          "type": "uint256",
          "internalType": "uint256"
        }
      ],
      "outputs": [],
      "stateMutability": "nonpayable"
    },
    {
      "type": "function",
      "name": "swarmToken",
      "inputs": [],
      "outputs": [
        {
          "name": "",
          "type": "address",
          "internalType": "contract SwarmToken"
        }
      ],
      "stateMutability": "view"
    },
    {
      "type": "function",
      "name": "totalFeesCollected",
      "inputs": [],
      "outputs": [
        {
          "name": "",
          "type": "uint256",
          "internalType": "uint256"
        }
      ],
      "stateMutability": "view"
    },
    {
      "type": "function",
      "name": "transferOwnership",
      "inputs": [
        {
          "name": "newOwner",
          "type": "address",
          "internalType": "address"
        }
      ],
      "outputs": [],
      "stateMutability": "nonpayable"
    },
    {
      "type": "function",
      "name": "treasury",
      "inputs": [],
      "outputs": [
        {
          "name": "",
          "type": "address",
          "internalType": "address"
        }
      ],
      "stateMutability": "view"
    },
    {
      "type": "function",
      "name": "usdcToken",
      "inputs": [],
      "outputs": [
        {
          "name": "",
          "type": "address",
          "internalType": "contract IERC20"
        }
      ],
      "stateMutability": "view"
    },
    {
      "type": "event",
      "name": "ClaimedReward",
      "inputs": [
        {
          "name": "pollId",
          "type": "uint256",
          "indexed": true,
          "internalType": "uint256"
        },
        {
          "name": "user",
          "type": "address",
          "indexed": true,
          "internalType": "address"
        },
        {
          "name": "amount",
          "type": "uint256",
          "indexed": false,
          "internalType": "uint256"
        },
        {
          "name": "bonusSwm",
          "type": "uint256",
          "indexed": false,
          "internalType": "uint256"
        }
      ],
      "anonymous": false
    },
    {
      "type": "event",
      "name": "EnteredPoll",
      "inputs": [
        {
          "name": "pollId",
          "type": "uint256",
          "indexed": true,
          "internalType": "uint256"
        },
        {
          "name": "user",
          "type": "address",
          "indexed": true,
          "internalType": "address"
        },
        {
          "name": "optionId",
          "type": "uint256",
          "indexed": false,
          "internalType": "uint256"
        },
        {
          "name": "amount",
          "type": "uint256",
          "indexed": false,
          "internalType": "uint256"
        },
        {
          "name": "fee",
          "type": "uint256",
          "indexed": false,
          "internalType": "uint256"
        },
        {
          "name": "swmMinted",
          "type": "uint256",
          "indexed": false,
          "internalType": "uint256"
        }
      ],
      "anonymous": false
    },
    {
      "type": "event",
      "name": "OwnershipTransferred",
      "inputs": [
        {
          "name": "previousOwner",
          "type": "address",
          "indexed": true,
          "internalType": "address"
        },
        {
          "name": "newOwner",
          "type": "address",
          "indexed": true,
          "internalType": "address"
        }
      ],
      "anonymous": false
    },
    {
      "type": "event",
      "name": "PollCreated",
      "inputs": [
        {
          "name": "pollId",
          "type": "uint256",
          "indexed": true,
          "internalType": "uint256"
        },
        {
          "name": "question",
          "type": "string",
          "indexed": false,
          "internalType": "string"
        },
        {
          "name": "options",
          "type": "string[]",
          "indexed": false,
          "internalType": "string[]"
        },
        {
          "name": "duration",
          "type": "uint256",
          "indexed": false,
          "internalType": "uint256"
        }
      ],
      "anonymous": false
    },
    {
      "type": "event",
      "name": "PollEnded",
      "inputs": [
        {
          "name": "pollId",
          "type": "uint256",
          "indexed": true,
          "internalType": "uint256"
        },
        {
          "name": "winningOption",
          "type": "uint256",
          "indexed": false,
          "internalType": "uint256"
        }
      ],
      "anonymous": false
    },
    {
      "type": "event",
      "name": "SwmMinted",
      "inputs": [
        {
          "name": "amount",
          "type": "uint256",
          "indexed": false,
          "internalType": "uint256"
        },
        {
          "name": "to",
          "type": "address",
          "indexed": false,
          "internalType": "address"
        }
      ],
      "anonymous": false
    },
    {
      "type": "error",
      "name": "OwnableInvalidOwner",
      "inputs": [
        {
          "name": "owner",
          "type": "address",
          "internalType": "address"
        }
      ]
    },
    {
      "type": "error",
      "name": "OwnableUnauthorizedAccount",
      "inputs": [
        {
          "name": "account",
          "type": "address",
          "internalType": "address"
        }
      ]
    },
    {
      "type": "error",
      "name": "ReentrancyGuardReentrantCall",
      "inputs": []
    },
    {
      "type": "error",
      "name": "SafeERC20FailedOperation",
      "inputs": [
        {
          "name": "token",
          "type": "address",
          "internalType": "address"
        }
      ]
    },
    {
      "type": "error",
      "name": "SwarmPoll__AlreadyClaimed",
      "inputs": []
    },
    {
      "type": "error",
      "name": "SwarmPoll__AlreadyParticipated",
      "inputs": []
    },
    {
      "type": "error",
      "name": "SwarmPoll__DurationMustBePositive",
      "inputs": []
    },
    {
      "type": "error",
      "name": "SwarmPoll__InvalidOption",
      "inputs": [
        {
          "name": "optionId",
          "type": "uint256",
          "internalType": "uint256"
        }
      ]
    },
    {
      "type": "error",
      "name": "SwarmPoll__InvalidPollId",
      "inputs": []
    },
    {
      "type": "error",
      "name": "SwarmPoll__NoStakePlaced",
      "inputs": []
    },
    {
      "type": "error",
      "name": "SwarmPoll__NoWinnings",
      "inputs": []
    },
    {
      "type": "error",
      "name": "SwarmPoll__NotEnoughOptions",
      "inputs": [
        {
          "name": "",
          "type": "uint256",
          "internalType": "uint256"
        }
      ]
    },
    {
      "type": "error",
      "name": "SwarmPoll__PollAlreadyEnded",
      "inputs": []
    },
    {
      "type": "error",
      "name": "SwarmPoll__PollNotActive",
      "inputs": []
    },
    {
      "type": "error",
      "name": "SwarmPoll__ZeroAddress",
      "inputs": []
    }
  ],
  "bytecode": {
    "object": "0x60e0346200015d57601f6200186138819003918201601f19168301916001600160401b03831184841017620001615780849260409485528339810103126200015d576200005a6020620000528362000175565b920162000175565b331562000145575f8054336001600160a01b03198216811783556040516001600160a01b0395909386939192918416907f8be0079c531659141344cd1fd0a4f28419497f9722a3daafe3b4186f6b6457e09080a3600180551690811580156200013a575b6200012b57506080521660a0523060c0526040516116d690816200018b823960805181818161083001528181610ae1015261124c015260a0518181816108dd01528181610bc601528181610db80152610efe015260c051818181610b0601528181610ea4015261100c0152f35b63665e78f960e01b8152600490fd5b5083831615620000be565b604051631e4fbdf760e01b81525f6004820152602490fd5b5f80fd5b634e487b7160e01b5f52604160045260245ffd5b51906001600160a01b03821682036200015d5756fe6080806040526004361015610012575f80fd5b5f3560e01c90816307c7a72d1461127b5750806311a5274614610ceb57806311eac855146112375780631643c8c41461116f5780631a8cbcaa1461107a5780632021add41461105857806360c6d8ae1461103b57806361d027b314610ff75780636cbfb44914610e3e578063715018a614610de757806375963bb414610da357806375ba105b14610d4c5780638da5cb5b14610d255780638e80ff5d14610d085780639207891d14610ceb578063a49a69cd14610c8a578063a638f2e2146109e0578063ae169a5014610740578063ae5b724c146106ba578063ca943e4d14610698578063d642aa021461067d578063e1adaf5814610634578063f2fde38b146105aa5763f8c860f414610124575f80fd5b346105a65760603660031901126105a65760043567ffffffffffffffff81116105a6576101559036906004016113df565b6024359067ffffffffffffffff82116105a657366023830112156105a65781600401359161018283611435565b9061019060405192836113bd565b83825260208201906024829560051b820101903682116105a65760248101925b82841061057657505050506101c361144d565b604435156105645780516002811061054c5750600454925f1984146105385760018401600455835f52600560205260405f2090835167ffffffffffffffff8111610412576102118354611478565b601f8111610508575b50806020601f82116001146104a5575f9161049a575b508160011b915f199060031b1c19161782555b825190680100000000000000008211610412576001830154826001850155808310610426575b5090600183015f5260205f20915f905b8282106102f957877fa46a647a1e50c527af0b3cb969b2f0fc1cd956ab908ba2975ba1bd07224755436102de896102ec8a60038b6102b9604435426114c6565b600282015501600160ff19825416179055604051938493606085526060850190611324565b908382036020850152611362565b60443560408301520390a2005b805180519067ffffffffffffffff8211610412576103178654611478565b601f81116103d7575b50602090601f831160011461036b5792826001949360209386955f92610360575b50505f19600383901b1c191690841b1787555b01940191019092610279565b015190505f80610341565b90865f5260205f20915f5b601f19851681106103bf575083602093600196938796938794601f198116106103a7575b505050811b018755610354565b01515f1960f88460031b161c191690555f808061039a565b91926020600181928685015181550194019201610376565b61040290875f5260205f20601f850160051c81019160208610610408575b601f0160051c01906114b0565b5f610320565b90915081906103f5565b634e487b7160e01b5f52604160045260245ffd5b600184015f5260205f20908382015b8183018110610445575050610269565b8061045260019254611478565b8061045f575b5001610435565b601f8111831461047457505f81555b5f610458565b5f90828252610491601f60208420920160051c82018583016114b0565b8183555561046e565b90508501515f610230565b9150835f5260205f205f925b601f19831684106104f0576001935082601f198116106104d8575b5050811b018255610243565b8701515f1960f88460031b161c191690555f806104cc565b878101518255602093840193600190920191016104b1565b61053290845f5260205f20601f840160051c8101916020851061040857601f0160051c01906114b0565b5f61021a565b634e487b7160e01b5f52601160045260245ffd5b60249060405190631920e16360e01b82526004820152fd5b60405163547048b560e01b8152600490fd5b833567ffffffffffffffff81116105a65760209161059b8392602436918701016113df565b8152019301926101b0565b5f80fd5b346105a65760203660031901126105a6576105c36112f8565b6105cb61144d565b6001600160a01b0390811690811561061c575f54826bffffffffffffffffffffffff60a01b8216175f55167f8be0079c531659141344cd1fd0a4f28419497f9722a3daafe3b4186f6b6457e05f80a3005b604051631e4fbdf760e01b81525f6004820152602490fd5b346105a65760203660031901126105a65760043560045481101561066b575f5260056020526020600160405f200154604051908152f35b604051636750590d60e11b8152600490fd5b346105a6575f3660031901126105a657602060405160c88152f35b346105a6575f3660031901126105a657602060405167016345785d8a00008152f35b346105a65760603660031901126105a6576004356106d66112e2565b6044359160045481101561066b575f52600560205260405f20906001820154831015610727579060089160018060a01b03165f520160205260405f20905f52602052602060405f2054604051908152f35b60405163388255c160e01b815260048101849052602490fd5b346105a6576020806003193601126105a65760043561075d6114d3565b60045481101561066b57805f526005825260405f209160ff600684015416156109ce576009830192335f5283825260ff60405f2054166109bc57335f5260088101825260405f20600582015490815f52835260405f20549081156109aa575f52600782018352600460405f205492015480820291820403610538578115610996570492831561098457335f818152918352604091829020805460ff19166001179055905163a9059cbb60e01b818401526024810191909152604480820185905281526108549061082e6064826113bd565b7f00000000000000000000000000000000000000000000000000000000000000006115a7565b670de0b6b3a76400008302670de0b6b3a763ffff198482040161053857620f4240900490816108b3575b6040519384528301527fa357057fcd892e9fef1cc739df0000a5b74ee82f6e7ca0c32e3c758e0308aaf960403393a360018055005b6040516340c10f1960e01b81523360048201526024810183905281816044815f6001600160a01b037f0000000000000000000000000000000000000000000000000000000000000000165af1801561097957610916915f9161094c575b5061150e565b604080518381523360208201527f48c2c1ebcb7a26e10c7d1f57e539fd1d23f599d91c030fb0376795623fe3d6eb9190a161087e565b61096c9150833d8511610972575b61096481836113bd565b8101906114f6565b86610910565b503d61095a565b6040513d5f823e3d90fd5b604051631a24d57d60e21b8152600490fd5b634e487b7160e01b5f52601260045260245ffd5b6040516346e12f0160e01b8152600490fd5b6040516315e748c360e21b8152600490fd5b604051637d4edd5360e11b8152600490fd5b346105a65760603660031901126105a657602435600435604435610a026114d3565b60045482101561066b5780156109aa57815f526020906005825260405f2060ff600382015416158015610c7c575b6109ce576001810154851015610c6357600a8101335f5280845260ff60405f205416610c5157335f52835260405f20600160ff1982541617905560c8820282810460c803610538576127109004918281039181831161053857600890610a98856002546114c6565b60025560048101610aaa8582546114c6565b9055875f5260078101865260405f20610ac48582546114c6565b9055335f5201845260405f20865f5284528160405f2055610b35827f0000000000000000000000000000000000000000000000000000000000000000610b2c867f0000000000000000000000000000000000000000000000000000000000000000338461154c565b3090339061154c565b67016345785d8a0000908382840292848404149114171561053857620f424090049283610b9c575b604051958652850152604084015260608301527ff56736101b9f05cba0006ef6ae568053e5a899482867d3c1998c8ff42163c9a560803393a360018055005b6040516340c10f1960e01b81523360048201526024810185905281816044815f6001600160a01b037f0000000000000000000000000000000000000000000000000000000000000000165af1801561097957610bfe915f91610c34575061150e565b604080518581523360208201527f48c2c1ebcb7a26e10c7d1f57e539fd1d23f599d91c030fb0376795623fe3d6eb9190a1610b5d565b610c4b9150833d85116109725761096481836113bd565b88610910565b604051635572c79760e11b8152600490fd5b60405163388255c160e01b815260048101869052602490fd5b506002810154421015610a30565b346105a657610c983661130e565b9060045481101561066b575f52600560205260405f206001810154821015610cd2576007915f5201602052602060405f2054604051908152f35b60405163388255c160e01b815260048101839052602490fd5b346105a6575f3660031901126105a6576020600454604051908152f35b346105a6575f3660031901126105a6576020600354604051908152f35b346105a6575f3660031901126105a6575f546040516001600160a01b039091168152602090f35b346105a65760403660031901126105a657600435610d686112e2565b9060045481101561066b575f526005602052600a60405f20019060018060a01b03165f52602052602060ff60405f2054166040519015158152f35b346105a6575f3660031901126105a6576040517f00000000000000000000000000000000000000000000000000000000000000006001600160a01b03168152602090f35b346105a6575f3660031901126105a657610dff61144d565b5f80546001600160a01b0319811682556001600160a01b03167f8be0079c531659141344cd1fd0a4f28419497f9722a3daafe3b4186f6b6457e08280a3005b346105a6576020806003193601126105a657610e586112f8565b90610e6161144d565b60035462278d008101809111610538574210610fc7576002548015610f985764e8d4a5100080820291820403610538576001600160a01b0392808416610f9257507f0000000000000000000000000000000000000000000000000000000000000000915b5f6002819055426003556040516340c10f1960e01b81526001600160a01b038516600482015260248101849052948291869160449183917f0000000000000000000000000000000000000000000000000000000000000000165af18015610979577f48c2c1ebcb7a26e10c7d1f57e539fd1d23f599d91c030fb0376795623fe3d6eb94610f5a925f92610f75575b505061150e565b604080519182526001600160a01b03929092166020820152a1005b610f8b9250803d106109725761096481836113bd565b8580610f53565b91610ec5565b60405162461bcd60e51b81526004810183905260076024820152664e6f206665657360c81b6044820152606490fd5b6064906040519062461bcd60e51b825260048201526009602482015268546f6f206561726c7960b81b6044820152fd5b346105a6575f3660031901126105a6576040517f00000000000000000000000000000000000000000000000000000000000000006001600160a01b03168152602090f35b346105a6575f3660031901126105a6576020600254604051908152f35b346105a6575f3660031901126105a6576020604051670de0b6b3a76400008152f35b346105a6576020806003193601126105a65760043560045481101561066b575f526005815260405f206001908181019060028101549160ff60038301541660048301549060ff600685015416926110d5600586015495611601565b9681546110e181611435565b926110ef60405194856113bd565b8184525f9081528a81208b85015b8383106111545750505050506111259761113291604051998a9960e08b5260e08b0190611324565b91898303908a0152611362565b946040870152151560608601526080850152151560a084015260c08301520390f35b848d819261116185611601565b8152019201920191906110fd565b346105a65761117d3661130e565b61118561144d565b60045482101561066b57815f52600560205260405f20600281015442106109ce576003810190815460ff81161561122557600182015484101561120c57918160209385600560067f3ca759e1f5f1098bced56e2e8d7b9c88310068de111c89c274e9791f0980b6369896019360ff19946001868254161790550155169055604051908152a2005b60405163388255c160e01b815260048101859052602490fd5b604051631cfea5d760e21b8152600490fd5b346105a6575f3660031901126105a6576040517f00000000000000000000000000000000000000000000000000000000000000006001600160a01b03168152602090f35b346105a65760403660031901126105a6576004356112976112e2565b916004548210156112d357505f526005602052600960405f20019060018060a01b03165f52602052602060ff60405f2054166040519015158152f35b636750590d60e11b8152600490fd5b602435906001600160a01b03821682036105a657565b600435906001600160a01b03821682036105a657565b60409060031901126105a6576004359060243590565b91908251928382525f5b84811061134e575050825f602080949584010152601f8019910116010190565b60208183018101518483018201520161132e565b908082519081815260208091019281808460051b8301019501935f915b84831061138f5750505050505090565b90919293949584806113ad600193601f198682030187528a51611324565b980193019301919493929061137f565b90601f8019910116810190811067ffffffffffffffff82111761041257604052565b81601f820112156105a65780359067ffffffffffffffff82116104125760405192611414601f8401601f1916602001856113bd565b828452602083830101116105a657815f926020809301838601378301015290565b67ffffffffffffffff81116104125760051b60200190565b5f546001600160a01b0316330361146057565b60405163118cdaa760e01b8152336004820152602490fd5b90600182811c921680156114a6575b602083101461149257565b634e487b7160e01b5f52602260045260245ffd5b91607f1691611487565b8181106114bb575050565b5f81556001016114b0565b9190820180921161053857565b6002600154146114e4576002600155565b604051633ee5aeb560e01b8152600490fd5b908160209103126105a6575180151581036105a65790565b1561151557565b60405162461bcd60e51b815260206004820152600f60248201526e14d5d3481b5a5b9d0819985a5b1959608a1b6044820152606490fd5b6040516323b872dd60e01b60208201526001600160a01b03928316602482015292909116604483015260648083019390935291815260a081019181831067ffffffffffffffff841117610412576115a5926040526115a7565b565b905f602091828151910182855af115610979575f513d6115f857506001600160a01b0381163b155b6115d65750565b604051635274afe760e01b81526001600160a01b039091166004820152602490fd5b600114156115cf565b9060405191825f82549261161484611478565b9081845260019485811690815f1461167d575060011461163d575b50506115a5925003836113bd565b909391505f52602090815f20935f915b8183106116655750506115a593508201015f8061162f565b8554888401850152948501948794509183019161164d565b9150506115a594506020925060ff191682840152151560051b8201015f8061162f56fea2646970667358221220206bc327844c04ec369675d9b06f32ef08771027cbc4298f546f7c6ea6183f5064736f6c63430008140033",
    "linkReferences": {}
  },
  "methodIdentifiers": {
    "BASELINE_SWM_PER_USDC()": "ca943e4d",
    "BONUS_SWM_PER_USDC()": "2021add4",
    "TREASURY_FEE_BPS()": "d642aa02",
    "claimReward(uint256)": "ae169a50",
    "createPoll(string,string[],uint256)": "f8c860f4",
    "declareWinner(uint256,uint256)": "1643c8c4",
    "getOptionCount(uint256)": "e1adaf58",
    "getOptionStake(uint256,uint256)": "a49a69cd",
    "getPoll(uint256)": "1a8cbcaa",
    "getPollCount()": "11a52746",
    "getUserStake(uint256,address,uint256)": "ae5b724c",
    "hasUserClaimed(uint256,address)": "07c7a72d",
    "hasUserEntered(uint256,address)": "75ba105b",
    "lastMintTimestamp()": "8e80ff5d",
    "mintSwmFromFees(address)": "6cbfb449",
    "owner()": "8da5cb5b",
    "pollCount()": "9207891d",
    "renounceOwnership()": "715018a6",
    "stake(uint256,uint256,uint256)": "a638f2e2",
    "swarmToken()": "75963bb4",
    "totalFeesCollected()": "60c6d8ae",
    "transferOwnership(address)": "f2fde38b",
    "treasury()": "61d027b3",
    "usdcToken()": "11eac855"
  },
  "id": 34
}